:100000000C9434000C9451000C9451000C94510049
:100010000C9451000C9451000C9451000C9451001C
:100020000C9451000C9451000C9451000C9451000C
:100030000C9451000C9451000C94E0000C9451006D
:100040000C9451000C9451000C9405010C94510037
:100050000C9451000C9451000C9451000C945100DC
:100060000C9451000C94510011241FBECFEFD8E026
:10007000DEBFCDBF11E0A0E0B1E0E6EDF4E002C0EC
:1000800005900D92A430B107D9F721E0A4E0B1E0CA
:1000900001C01D92A731B207E1F70E9465000C94E0
:1000A00069020C94000087E690E09093C50080936D
:1000B000C400E1ECF0E080818861808386E0809379
:1000C000C20080818068808308950E94530084B1BB
:1000D0008FEF84B9E0E8F0E08081826F8083E1E80F
:1000E000F0E080818A618083E6E8F0E08FE39CE9BC
:1000F0009183808384B5826084BD85B5836085BD2E
:10010000AEE6B0E08C9182608C9389EF87BD8081F0
:100110009181805D974090938900809388008081D1
:100120009181805D974090938B0080938A007894B2
:1001300028E830E0CAE8D0E0F8948091100190916E
:100140001101A0911201B0911301809308019093C5
:100150000901A0930A01B0930B01809108019091CD
:100160000901A0910A01B0910B01C0900C01D0903F
:100170000D01E0900E01F0900F01409100015091AF
:10018000010160910201709103018C199D09AE0972
:10019000BF09481759076A077B0780F4808191815E
:1001A000805D9740D90111969C938E9380819181B7
:1001B000805D974099838883109204017894BCCF26
:1001C0001F920F920FB60F9211248F939F93AF93AC
:1001D000BF938091100190911101A0911201B091F3
:1001E00013010196A11DB11D80931001909311017F
:1001F000A0931201B0931301BF91AF919F918F9182
:100200000F900FBE0F901F9018951F920F920FB670
:100210000F921124CF92DF92EF92FF920F931F93D0
:100220002F933F934F935F936F937F938F939F93FE
:10023000AF93BF93CF93DF93EF93FF938091100120
:1002400090911101A0911201B091130180930C01C2
:1002500090930D01A0930E01B0930F018091C60001
:100260008A3F21F481E080930701CAC09091070181
:10027000992371F09091060191110AC090910501A6
:10028000911106C091E09093060180931501B8C0CA
:1002900090910701992371F090910601992351F0F3
:1002A00090910501911106C091E090930501809312
:1002B0001401A6C090910701992309F4A1C090915F
:1002C0000601992309F49CC090910501992309F432
:1002D00097C0909115019B3F71F4909114019B3F41
:1002E00051F481E0809304011092070110920601FD
:1002F0001092050185C0909115019C3F69F4909181
:1003000014019C3F49F410920401109207011092CD
:1003100006011092050174C09091150120911401FD
:10032000922798134AC080910401882309F445C09C
:1003300006E810E0F801C081D1812091150130E07C
:10034000A0EDB7E00E9438020F2EF4E6CF2ED12C9C
:10035000E12CF12CF02DA70196010E941902DA017F
:10036000C9018053984FAF4FBF4FC81BD90BD093D3
:100370008900C0938800F801C081D1818091140167
:10038000282F30E0A0EDB7E00E943802A7019601C7
:100390000E941902DA01C9018053984FAF4FBF4F35
:1003A000C81BD90BD0938B00C0938A001092070111
:1003B000109206011092050123C080910401811161
:1003C00019C0E6E8F0E080819181805D97409093CC
:1003D00089008093880080819181805D974090930F
:1003E0008B0080938A0010920701109206011092F0
:1003F000050106C010920701109206011092050136
:10040000FF91EF91DF91CF91BF91AF919F918F912C
:100410007F916F915F914F913F912F911F910F911C
:10042000FF90EF90DF90CF900F900FBE0F901F9036
:100430001895052E97FB1EF400940E94300257FD7C
:1004400007D00E94470207FC03D04EF40C94300200
:1004500050954095309521953F4F4F4F5F4F0895F0
:1004600090958095709561957F4F8F4F9F4F089520
:10047000A29FB001B39FC001A39F700D811D1124E5
:10048000911DB29F700D811D1124911D0895A1E24F
:100490001A2EAA1BBB1BFD010DC0AA1FBB1FEE1FFE
:1004A000FF1FA217B307E407F50720F0A21BB30B49
:1004B000E40BF50B661F771F881F991F1A9469F7C5
:1004C00060957095809590959B01AC01BD01CF0121
:0604D0000895F894FFCF2F
:0404D600D00700004B
:00000001FF
