:100000000C945A000C9477000C9477000C947700B1
:100010000C9477000C9477000C9477000C94770084
:100020000C9477000C9477000C9477000C94770074
:100030000C9477000C9477000C942D040C947700AA
:100040000C9477000C9477000C9477000C94770054
:100050000C9477000C9477000C9477000C94770044
:100060000C9477000C947700084AD73B3BCE016E86
:1000700084BCBFFDC12F3D6C74319ABD56833DDAFF
:100080003D00C77F11BED9E4BB4C3E916BAAAABE0E
:10009000000000803F05A84CCDB2D44EB93836A937
:1000A000020C50B9918688083CA6AAAA2ABE000074
:1000B00000803F0011241FBECFEFD8E0DEBFCDBFD0
:1000C00011E0A0E0B1E0ECE8F0E102C005900D9293
:1000D000AC31B107D9F721E0ACE1B1E001C01D922C
:1000E000A432B207E1F70E94A2010C9444080C94D8
:1000F000000087E690E09093C5008093C400E1EC97
:10010000F0E080818861808386E08093C20008955A
:10011000CF93DF936623A1F0DC016150262F30E0FE
:100120002F5F3F4F280F391FE0ECF0E0C6ECD0E026
:10013000908195FFFDCF9D919883A217B307C1F7DA
:10014000DF91CF910895E0ECF0E0908195FFFDCF35
:100150008093C60008958AEF0E94A3008BEF0E944F
:10016000A3008BEF0E94A30080E00E94A3000895EB
:100170008AEF0E94A3008CEF0E94A3008CEF0E94E4
:10018000A30080E00E94A3000895CF93DF93EC01C9
:100190008881882331F021960E94A30089918111E2
:1001A000FBCFDF91CF9108958DE00E94A3008AE0FC
:1001B0000E94A3000895E9EBF0E080818C7F8083AA
:1001C00088E48093B800089594EA9093BC00ECEB27
:1001D000F0E090819923ECF7811107C0E9EBF0E0A2
:1001E0008081887F8830E1F70895E9EBF0E0808135
:1001F000887F8031E1F70895880F862B8093BB00BC
:1002000084E88093BC00ECEBF0E080818823ECF77D
:10021000611107C0E9EBF0E08081887F8831E1F768
:100220000895E9EBF0E08081887F8034E1F708955C
:100230008093BB0084E88093BC00ECEBF0E080810D
:100240008823ECF7E9EBF0E08081887F8832E1F7E2
:10025000089594E89093BC00811105C0ECEBF0E0A8
:10026000908190649083ECEBF0E090819923ECF71F
:10027000811107C0E9EBF0E08081887F8035E1F7EC
:1002800006C0E9EBF0E08081887F8835E1F7809156
:10029000BB00089584E98093BC00ECEBF0E0808122
:1002A00084FFFDCF08950F931F93CF93DF9380E0DA
:1002B0000E94E40060E082E50E94FC0080E00E9471
:1002C00018010E944A018FE99FE00197F1F700C0F1
:1002D000000080E00E94E40061E082E50E94FC00F2
:1002E00080E00E942901182F80E00E942901082F38
:1002F00080E00E94290180E00E94290180E00E94A4
:10030000290181E00E942901C7E18C27D7E1D80F9C
:100310000E944A018FE99FE00197F1F700C00000B9
:10032000612F6C27695E702F7C27795E91E08D2F9D
:100330008927D695D17081709D27DF91CF911F912C
:100340000F910895CF93DF93CDB7DEB72A970FB6FD
:10035000F894DEBF0FBECDBF0E94DB000E94790083
:1003600080E091E00E94C5000E94D40080E00E94DD
:10037000E40060E082E50E94FC0080E40E94180135
:1003800080E00E9418010E944A018FE99FE00197D6
:10039000F1F700C0000084B18FEF84B9E0E8F0E02D
:1003A0008081826F8083E1E8F0E080818A618083D0
:1003B0008FE39CE9909387008093860084B58260E8
:1003C00084BD85B5836085BDEEE6F0E08081826006
:1003D000808389EF87BD78948AEF89831A86EE241B
:1003E000E39401C0E12C0E9453019987262F8111CB
:1003F00012C2EE2009F470C00E9453018823E1F379
:10040000072F01C0072F88E091E00E94C5000E94DD
:10041000D4009FEFE9EFF0E09150E040F040E1F7C9
:1004200000C000000E9453018111FCCFF8C10E945E
:1004300053018823E1F3272E8DE091E00E94C5004F
:100440000E94D400EFEFF9EF20E0E150F0402040AF
:10045000E1F700C000000E9453018111FCCFE9C107
:100460000E9453018823E1F3362E82E191E00E943D
:10047000C5000E94D400FFEF29EF80E0F15020403A
:100480008040E1F700C000000E9453018111FCCFC1
:10049000DAC10E9453018823E1F3162F87E191E02E
:1004A0000E94C5000E94D4002FEF89EF90E02150F8
:1004B00080409040E1F700C000000E94530181118C
:1004C000FCCF99872FEF89EF90E02150804090403A
:1004D000E1F700C00000262F231520F0121718F4B2
:1004E000212F01C0232D701728F0F72E271618F49E
:1004F000F22C01C0F02E832C912CA12CB12C822F38
:1005000090E0A0E0B0E09C01AD01281939094A094A
:100510005B09A8ECB0E00E941708412E512C612C19
:10052000712CA3019201281939094A095B090E941B
:10053000E907CA01B90164567109810991090E944C
:10054000DE054B015C01802F90E0A0E0B0E04F2D74
:1005500050E060E070E06C017D019A01AB012C1964
:100560003D094E095F09A4E6B0E00E941708422C3D
:10057000512C612C712CA30192012C193D094E09BB
:100580005F090E94E907CA01B9010E94DE056B01FB
:100590007C0120E030E048EC52E4C501B4010E9447
:1005A0003B052B013C0120E030E048EC52E4C70160
:1005B000B6010E943B056B017C01A3019201C301BE
:1005C000B2010E9401074B015C01A7019601C7011E
:1005D000B6010E9401076D837E838F8398872D81EA
:1005E0003E814F815885C501B4010E9453040E9489
:1005F0007C074B015C01A3019201C701B6010E9477
:10060000D20426E53EE049E45FE30E9452046B0118
:100610007C010E9436052B013C01C701B6010E94F6
:100620006E07A50194010E9401076B017C01A501E1
:100630009401C301B2010E94010724EF3DEF44EB96
:100640005FE30E94010720E030E048EC52E40E94A2
:1006500001074B015C0120E030E0A9010E94310557
:1006600088235CF020E030E048EC52E4C501B4019E
:100670000E94F40618162CF00CC0812C912C540109
:1006800008C00F2E812C912CF8ECAF2EF2E4BF2E77
:10069000F02D24EF3DEF44EB5FE3C701B6010E946C
:1006A000010720E030E048EC52E40E9401072B01F2
:1006B0003C0120E030E0A9010E94310588235CF074
:1006C00020E030E048EC52E4C301B2010E94F4069D
:1006D00018162CF00CC0412C512C320108C00F2EE2
:1006E000412C512CF8EC6F2EF2E47F2EF02DC50139
:1006F000B4010E94AD05C62E6A83C301B2010E94F7
:10070000AD05D62E6B83862F8C258C8364E0CE01BD
:1007100001960E948800E6E8F0E0E080F1802C2D50
:1007200030E0A8E9B8E00E94080824E630E040E0A4
:1007300050E00E94E907DA01C901885F984FAF4F86
:10074000BF4FE81AF90AE8E8F0E0F182E082E6E853
:10075000F0E0E080F1802D2D30E0A8E9B8E00E94C3
:10076000080824E630E040E050E00E94E907DA01A2
:10077000C901885F984FAF4FBF4FE81AF90AEAE8FE
:10078000F0E0F182E082C984CC20A1F180911C01CB
:1007900090911D01A0911E01B0911F014091200177
:1007A0005091210160912201709123016C017D0122
:1007B000C41AD50AE60AF70A21EDC21627E0D206C6
:1007C000E104F10408F40ECE8093200190932101FE
:1007D000A0932201B0932301CA84CC2019F00E9477
:1007E000AB0002C00E94B800DA84EE24E394DE2459
:1007F000DA86F8CD80911C0190911D01A0911E0117
:10080000B0911F018093200190932101A0932201B8
:10081000B0932301E7CDEE2009F45ECEF3CD2FEFA8
:1008200089EF90E0215080409040E1F700C0000047
:10083000FECD8FEF99EFE0E081509040E040E1F78E
:1008400000C000000DCE9FEFE9EFF0E09150E040D6
:10085000F040E1F700C000001CCE1F920F920FB6CF
:100860000F9211248F939F93AF93BF9380911C019C
:1008700090911D01A0911E01B0911F010196A11D33
:10088000B11D80931C0190931D01A0931E01B09394
:100890001F01BF91AF919F918F910F900FBE0F904D
:1008A0001F9018955058BB27AA270E946A040C94E1
:1008B000A6060E946D0638F00E94740620F039F4F6
:1008C0009F3F19F426F40C9443060EF4E095E7FBE1
:1008D0000C943D06E92F0E94CB0658F3BA17620725
:1008E00073078407950720F079F4A6F50C94ED06BC
:1008F0000EF4E0950B2EBA2FA02D0B01B90190013B
:100900000C01CA01A0011124FF27591B99F0593F7E
:1009100050F4503E68F11A16F040A22F232F342FC6
:100920004427585FF3CF469537952795A795F04014
:100930005395C9F77EF41F16BA0B620B730B840B29
:10094000BAF09150A1F0FF0FBB1F661F771F881FE1
:10095000C2F70EC0BA0F621F731F841F48F4879539
:1009600077956795B795F7959E3F08F0B0CF93952B
:10097000880F08F09927EE0F9795879508950E94A4
:100980006D0660F080E891E009F49EEF0E94740625
:1009900028F040E851E071F45EEF0CC00C9443067F
:1009A0000C94ED06E92FE0780E94CB0640F3092E67
:1009B000052AB1F3261737074807590738F00E2ED6
:1009C00007F8E02569F0E025E0640AC0EF6307F866
:1009D000009407FADB01B9019D01DC01CA01AD01F8
:1009E000EF930E9452050E94A6060E9402055F91A5
:1009F000552339F02BED3FE049E450FD49EC0C94D0
:100A000053040895DF93DD27B92FBF7740E85FE3F4
:100A10001616170648075B0718F4D92F0E94F90627
:100A20009F938F937F936F930E94BC07E8E6F0E05B
:100A30000E9446060E94A6062F913F914F915F911A
:100A40000E941407DD2351F09058A2EA2AED3FE0FE
:100A500049EC5FE3D0785D270E946A04DF910C9433
:100A6000A6060E94190608F481E008950E947D06FA
:100A7000E3950C94B7060E944F050C94A6060E94BD
:100A8000740658F00E946D0640F029F45F3F29F08B
:100A90000C943D0651110C94EE060C9443060E94F2
:100AA000CB0668F39923B1F3552391F3951B550BAE
:100AB000BB27AA2762177307840738F09F5F5F4F31
:100AC000220F331F441FAA1FA9F335D00E2E3AF070
:100AD000E0E832D091505040E695001CCAF72BD088
:100AE000FE2F29D0660F771F881FBB1F26173707D9
:100AF0004807AB07B0E809F0BB0B802DBF01FF270B
:100B000093585F4F3AF09E3F510578F00C943D06A4
:100B10000C94EE065F3FE4F3983ED4F38695779508
:100B20006795B795F7959F5FC9F7880F911D9695C3
:100B3000879597F90895E1E0660F771F881FBB1F1F
:100B4000621773078407BA0720F0621B730B840BCC
:100B5000BA0BEE1F88F7E09508950E94D30688F03F
:100B60009F5798F0B92F9927B751B0F0E1F0660F71
:100B7000771F881F991F1AF0BA95C9F714C0B130B2
:100B800091F00E94ED06B1E008950C94ED06672FF8
:100B9000782F8827B85F39F0B93FCCF386957795E1
:100BA0006795B395D9F73EF49095809570956195CA
:100BB0007F4F8F4F9F4F0895E89409C097FB3EF4F5
:100BC00090958095709561957F4F8F4F9F4F99239A
:100BD000A9F0F92F96E9BB279395F6958795779518
:100BE0006795B795F111F8CFFAF4BB0F11F460FFD8
:100BF0001BC06F5F7F4F8F4F9F4F16C0882311F030
:100C000096E911C0772321F09EE8872F762F05C043
:100C1000662371F096E8862F70E060E02AF09A95DE
:100C2000660F771F881FDAF7880F9695879597F9D3
:100C30000895990F0008550FAA0BE0E8FEEF16166D
:100C40001706E807F907C0F012161306E407F507C0
:100C500098F0621B730B840B950B39F40A2661F034
:100C6000232B242B252B21F408950A2609F4A140D7
:100C7000A6958FEF811D811D089597F99F6780E8E4
:100C800070E060E008959FEF80EC0895DF93CF93CC
:100C90001F930F93FF92EF92DF927B018C01689478
:100CA00006C0DA2EEF010E941407FE01E894A59118
:100CB0002591359145915591A6F3EF010E946A0463
:100CC000FE019701A801DA9469F7DF90EF90FF9099
:100CD0000F911F91CF91DF91089500240A94161669
:100CE000170618060906089500240A94121613061A
:100CF0001406050608950C9443060E94D306D8F303
:100D0000E894E0E0BB279F57F0F02AED3FE049EC84
:100D100006C0EE0FBB0F661F771F881F28F0B23A80
:100D200062077307840728F0B25A620B730B840BB7
:100D3000E3959A9572F7803830F49A95BB0F661F49
:100D4000771F881FD2F790480C94C207092E03948E
:100D5000000C11F4882352F0BB0F40F4BF2B11F4A8
:100D600060FF04C06F5F7F4F8F4F9F4F0895EF93D9
:100D7000E0FF07C0A2EA2AED3FE049EC5FEB0E94EA
:100D80006A040E94A6060F90039401FC9058E5E9BE
:100D9000F0E00C94D50757FD9058440F551F59F0BB
:100DA0005F3F71F04795880F97FB991F61F09F3F58
:100DB00079F087950895121613061406551FF2CF81
:100DC0004695F1DF08C0161617061806991FF1CFD1
:100DD00086957105610508940895E894BB276627F8
:100DE0007727CB0197F908950E94190608F48FEF31
:100DF00008959B01AC0160E070E080E89FE30C94F3
:100E00003B050E9414070C94A6060E946D0638F05C
:100E10000E94740620F0952311F00C943D060C946A
:100E2000430611240C94EE060E94CB0670F3959FA6
:100E3000C1F3950F50E0551F629FF001729FBB27D1
:100E4000F00DB11D639FAA27F00DB11DAA1F649F6D
:100E50006627B00DA11D661F829F2227B00DA11D20
:100E6000621F739FB00DA11D621F839FA00D611DA6
:100E7000221F749F3327A00D611D231F849F600DC7
:100E8000211D822F762F6A2F11249F5750409AF0F0
:100E9000F1F088234AF0EE0FFF1FBB1F661F771F7C
:100EA000881F91505040A9F79E3F510580F00C9447
:100EB0003D060C94EE065F3FE4F3983ED4F386952E
:100EC00077956795B795F795E7959F5FC1F7FE2BE7
:100ED000880F911D9695879597F908959F930E9485
:100EE0007D060F9007FCEE5F0C94B70619F416F41C
:100EF0000C9443060C94C0070E94D306B8F39923C0
:100F0000C9F3B6F39F57550B87FF0E94CE07002405
:100F1000A0E640EA900180585695979528F4805CA9
:100F2000660F771F881F20F026173707480730F411
:100F3000621B730B840B202931294A2BA695179429
:100F40000794202531254A2758F7660F771F881FF9
:100F500020F026173707480730F4620B730B840B19
:100F6000200D311D411DA09581F7B901842F9158A5
:100F7000880F9695879508959B01AC010C94010705
:100F80009F3F31F0915020F4879577956795B795FD
:100F9000880F911D9695879597F908959150504027
:100FA000660F771F881FD2F708959F938F937F93C3
:100FB0006F93FF93EF939B01AC010E940107EF91A8
:100FC000FF910E9446062F913F914F915F910C94A3
:100FD0000107052E97FB1EF400940E94000857FDA0
:100FE00007D00E94220807FC03D04EF40C9400089E
:100FF00050954095309521953F4F4F4F5F4F089545
:1010000090958095709561957F4F8F4F9F4F089574
:10101000A29FB001B39FC001A39F700D811D112439
:10102000911DB29F700D811D1124911D08950E9484
:101030000808A59F900DB49F900DA49F800D911D51
:1010400011240895A1E21A2EAA1BBB1BFD010DC09D
:10105000AA1FBB1FEE1FFF1FA217B307E407F50768
:1010600020F0A21BB30BE40BF50B661F771F881F44
:10107000991F1A9469F760957095809590959B01DA
:0C108000AC01BD01CF010895F894FFCF32
:10108C0053746172746564006D696E59006D61789A
:0C109C0059006D696E58006D61785800B5
:00000001FF
